{
  "_format": "hh-sol-artifact-1",
  "contractName": "C3",
  "sourceName": "contracts/C3.sol",
  "abi": [
    {
      "inputs": [
        {
          "internalType": "contract IWorldID",
          "name": "worldId",
          "type": "address"
        }
      ],
      "stateMutability": "nonpayable",
      "type": "constructor"
    },
    {
      "inputs": [],
      "name": "InvalidNullifier",
      "type": "error"
    },
    {
      "inputs": [],
      "name": "PetitionDoesNotExist",
      "type": "error"
    },
    {
      "inputs": [],
      "name": "PetitionExists",
      "type": "error"
    },
    {
      "inputs": [],
      "name": "Unauthorized",
      "type": "error"
    },
    {
      "inputs": [],
      "name": "UpdateExists",
      "type": "error"
    },
    {
      "inputs": [],
      "name": "VictoryDeclared",
      "type": "error"
    },
    {
      "anonymous": false,
      "inputs": [
        {
          "indexed": false,
          "internalType": "string",
          "name": "petitionUuid",
          "type": "string"
        },
        {
          "indexed": false,
          "internalType": "string",
          "name": "petitionCid",
          "type": "string"
        }
      ],
      "name": "PetitionCreated",
      "type": "event"
    },
    {
      "anonymous": false,
      "inputs": [
        {
          "indexed": false,
          "internalType": "string",
          "name": "petitionUuid",
          "type": "string"
        },
        {
          "indexed": false,
          "internalType": "address",
          "name": "signer",
          "type": "address"
        }
      ],
      "name": "PetitionSigned",
      "type": "event"
    },
    {
      "anonymous": false,
      "inputs": [
        {
          "indexed": false,
          "internalType": "string",
          "name": "petitionUuid",
          "type": "string"
        },
        {
          "indexed": false,
          "internalType": "string",
          "name": "updateUuid",
          "type": "string"
        },
        {
          "indexed": false,
          "internalType": "string",
          "name": "updateCid",
          "type": "string"
        }
      ],
      "name": "PetitionUpdated",
      "type": "event"
    },
    {
      "anonymous": false,
      "inputs": [
        {
          "indexed": false,
          "internalType": "string",
          "name": "petitionUuid",
          "type": "string"
        }
      ],
      "name": "PetitionVictory",
      "type": "event"
    },
    {
      "inputs": [],
      "name": "APP_ID",
      "outputs": [
        {
          "internalType": "string",
          "name": "",
          "type": "string"
        }
      ],
      "stateMutability": "view",
      "type": "function"
    },
    {
      "inputs": [],
      "name": "PRE_ACTION_ID_CREATE_PETITION",
      "outputs": [
        {
          "internalType": "string",
          "name": "",
          "type": "string"
        }
      ],
      "stateMutability": "view",
      "type": "function"
    },
    {
      "inputs": [],
      "name": "PRE_ACTION_ID_SIGN_PETITION",
      "outputs": [
        {
          "internalType": "string",
          "name": "",
          "type": "string"
        }
      ],
      "stateMutability": "view",
      "type": "function"
    },
    {
      "inputs": [
        {
          "internalType": "string",
          "name": "preActionId",
          "type": "string"
        },
        {
          "internalType": "string",
          "name": "petitionUuid",
          "type": "string"
        }
      ],
      "name": "computeDynamicActionId",
      "outputs": [
        {
          "internalType": "string",
          "name": "dynamicActionId",
          "type": "string"
        }
      ],
      "stateMutability": "pure",
      "type": "function"
    },
    {
      "inputs": [
        {
          "internalType": "string",
          "name": "petitionUuid",
          "type": "string"
        },
        {
          "internalType": "string",
          "name": "petitionCid",
          "type": "string"
        },
        {
          "components": [
            {
              "internalType": "uint256",
              "name": "root",
              "type": "uint256"
            },
            {
              "internalType": "uint256",
              "name": "nullifierHash",
              "type": "uint256"
            },
            {
              "internalType": "uint256[8]",
              "name": "proof",
              "type": "uint256[8]"
            }
          ],
          "internalType": "struct WorldIDExternalData",
          "name": "metadata",
          "type": "tuple"
        }
      ],
      "name": "createPetition",
      "outputs": [],
      "stateMutability": "nonpayable",
      "type": "function"
    },
    {
      "inputs": [
        {
          "internalType": "string",
          "name": "petitionUuid",
          "type": "string"
        },
        {
          "internalType": "string",
          "name": "updateUuid",
          "type": "string"
        },
        {
          "internalType": "string",
          "name": "updateCid",
          "type": "string"
        }
      ],
      "name": "createUpdate",
      "outputs": [],
      "stateMutability": "nonpayable",
      "type": "function"
    },
    {
      "inputs": [
        {
          "internalType": "string",
          "name": "petitionUuid",
          "type": "string"
        }
      ],
      "name": "declareVictory",
      "outputs": [],
      "stateMutability": "nonpayable",
      "type": "function"
    },
    {
      "inputs": [
        {
          "internalType": "address",
          "name": "",
          "type": "address"
        },
        {
          "internalType": "uint256",
          "name": "",
          "type": "uint256"
        }
      ],
      "name": "nullifiers",
      "outputs": [
        {
          "internalType": "bool",
          "name": "",
          "type": "bool"
        }
      ],
      "stateMutability": "view",
      "type": "function"
    },
    {
      "inputs": [
        {
          "internalType": "string",
          "name": "",
          "type": "string"
        }
      ],
      "name": "petitions",
      "outputs": [
        {
          "internalType": "bool",
          "name": "victory",
          "type": "bool"
        },
        {
          "internalType": "address",
          "name": "petitioner",
          "type": "address"
        }
      ],
      "stateMutability": "view",
      "type": "function"
    },
    {
      "inputs": [
        {
          "internalType": "string",
          "name": "petitionUuid",
          "type": "string"
        },
        {
          "components": [
            {
              "internalType": "uint256",
              "name": "root",
              "type": "uint256"
            },
            {
              "internalType": "uint256",
              "name": "nullifierHash",
              "type": "uint256"
            },
            {
              "internalType": "uint256[8]",
              "name": "proof",
              "type": "uint256[8]"
            }
          ],
          "internalType": "struct WorldIDExternalData",
          "name": "metadata",
          "type": "tuple"
        }
      ],
      "name": "signPetition",
      "outputs": [],
      "stateMutability": "nonpayable",
      "type": "function"
    },
    {
      "inputs": [
        {
          "internalType": "string",
          "name": "",
          "type": "string"
        }
      ],
      "name": "updates",
      "outputs": [
        {
          "internalType": "bool",
          "name": "exists",
          "type": "bool"
        }
      ],
      "stateMutability": "view",
      "type": "function"
    }
  ],
  "bytecode": "0x60c060405234801561001057600080fd5b50604051610eed380380610eed83398101604081905261002f91610045565b6001600160a01b0316608052600160a052610075565b60006020828403121561005757600080fd5b81516001600160a01b038116811461006e57600080fd5b9392505050565b60805160a051610e5361009a60003960006104ce015260006104a20152610e536000f3fe608060405234801561001057600080fd5b50600436106100a95760003560e01c80639d3f42c6116100715780639d3f42c6146101b0578063a4b0e2a6146101c3578063a6b5f60e146101f1578063b75b7be714610204578063b9f70e1b14610217578063c187bbc11461024257600080fd5b8063028434cc146100ae5780631c909ab814610110578063576f08e71461014e5780637306cc94146101635780638843ef2914610176575b600080fd5b6100ec6100bc366004610900565b805160208183018101805160008252928201919093012091525460ff81169061010090046001600160a01b031682565b6040805192151583526001600160a01b039091166020830152015b60405180910390f35b61013e61011e36600461093d565b600260209081526000928352604080842090915290825290205460ff1681565b6040519015158152602001610107565b61016161015c3660046109d7565b61024a565b005b610161610171366004610a5a565b6102ee565b6101a36040518060400160405280600e81526020016d31b932b0ba32a832ba34ba34b7b760911b81525081565b6040516101079190610b18565b6101616101be366004610b4b565b610304565b61013e6101d1366004610900565b805160208183018101805160018252928201919093012091525460ff1681565b6101a36101ff366004610b8d565b610312565b610161610212366004610bf1565b61033e565b6101a36040518060400160405280600c81526020016b39b4b3b72832ba34ba34b7b760a11b81525081565b6101a36103d2565b6102db33826102d66040518060600160405280602c8152602001610df2602c91396102d16040518060400160405280600e81526020016d31b932b0ba32a832ba34ba34b7b760911b8152508b8b8080601f01602080910402602001604051908101604052809392919081815260200183838082843760009201919091525061031292505050565b6103ee565b610434565b6102e78585858561058c565b5050505050565b6102fc868686868686610639565b505050505050565b61030e8282610757565b5050565b60608282604051602001610327929190610c47565b604051602081830303815290604052905092915050565b6103c333826102d66040518060600160405280602c8152602001610df2602c91396102d16040518060400160405280600c81526020016b39b4b3b72832ba34ba34b7b760a11b81525089898080601f01602080910402602001604051908101604052809392919081815260200183838082843760009201919091525061031292505050565b6103cd83836107e9565b505050565b6040518060600160405280602c8152602001610df2602c913981565b600061042d61041b846040516020016104079190610c83565b604051602081830303815290604052610828565b83604051602001610407929190610c9f565b9392505050565b6001600160a01b038316600090815260026020908152604080832085830135845290915290205460ff161561047c57604051632ec8265960e11b815260040160405180910390fd5b6040516bffffffffffffffffffffffff19606085901b1660208201526001600160a01b037f00000000000000000000000000000000000000000000000000000000000000001690633bc778e3908435907f0000000000000000000000000000000000000000000000000000000000000000906104fa90603401610407565b866020013586886040016040518763ffffffff1660e01b815260040161052596959493929190610cc5565b60006040518083038186803b15801561053d57600080fd5b505afa158015610551573d6000803e3d6000fd5b5050506001600160a01b03909316600090815260026020908152604080832094820135835293905291909120805460ff191660011790555050565b600080858560405161059f929190610cfd565b908152604051908190036020019020805490915061010090046001600160a01b0316156105df57604051632276942760e11b815260040160405180910390fd5b8054610100600160a81b03191633610100021781556040517f10052674890124076918674cb1a14a6cc3d7a35fbcddd6ba4d5bbb43a9a2a4a89061062a908790879087908790610d36565b60405180910390a15050505050565b60006001858560405161064d929190610cfd565b908152602001604051809103902090506000808888604051610670929190610cfd565b908152604051908190036020019020825490915060ff16156106a55760405163194215a160e21b815260040160405180910390fd5b805461010090046001600160a01b03166106d25760405163b36e9f2f60e01b815260040160405180910390fd5b805461010090046001600160a01b03163314610700576040516282b42960e81b815260040160405180910390fd5b815460ff191660011782556040517fae863d9b1e73497b7ef54b01ef1c2a5e86ef4933006efb19ee0821182c8a17bf9061074590889088908c908c908a908a90610d68565b60405180910390a15050505050505050565b600080838360405161076a929190610cfd565b908152604051908190036020019020805490915060ff161561079f5760405163b4c1e9ab60e01b815260040160405180910390fd5b805460ff191660011781556040517f6b9aba9c09dc833d815ac241a14cf420021d48d9d3517e5ae915840a09b4d3c2906107dc9085908590610db1565b60405180910390a1505050565b7f4be16c2683020b75ecabe4f81abd6105a1096c1be97be9f9223b2b234ee7844b82823360405161081c93929190610dc5565b60405180910390a15050565b600060088260405160200161083d9190610c83565b60408051601f198184030181529190528051602090910120901c92915050565b634e487b7160e01b600052604160045260246000fd5b600082601f83011261088457600080fd5b813567ffffffffffffffff8082111561089f5761089f61085d565b604051601f8301601f19908116603f011681019082821181831017156108c7576108c761085d565b816040528381528660208588010111156108e057600080fd5b836020870160208301376000602085830101528094505050505092915050565b60006020828403121561091257600080fd5b813567ffffffffffffffff81111561092957600080fd5b61093584828501610873565b949350505050565b6000806040838503121561095057600080fd5b82356001600160a01b038116811461096757600080fd5b946020939093013593505050565b60008083601f84011261098757600080fd5b50813567ffffffffffffffff81111561099f57600080fd5b6020830191508360208285010111156109b757600080fd5b9250929050565b600061014082840312156109d157600080fd5b50919050565b600080600080600061018086880312156109f057600080fd5b853567ffffffffffffffff80821115610a0857600080fd5b610a1489838a01610975565b90975095506020880135915080821115610a2d57600080fd5b50610a3a88828901610975565b9094509250610a4e905087604088016109be565b90509295509295909350565b60008060008060008060608789031215610a7357600080fd5b863567ffffffffffffffff80821115610a8b57600080fd5b610a978a838b01610975565b90985096506020890135915080821115610ab057600080fd5b610abc8a838b01610975565b90965094506040890135915080821115610ad557600080fd5b50610ae289828a01610975565b979a9699509497509295939492505050565b60005b83811015610b0f578181015183820152602001610af7565b50506000910152565b6020815260008251806020840152610b37816040850160208701610af4565b601f01601f19169190910160400192915050565b60008060208385031215610b5e57600080fd5b823567ffffffffffffffff811115610b7557600080fd5b610b8185828601610975565b90969095509350505050565b60008060408385031215610ba057600080fd5b823567ffffffffffffffff80821115610bb857600080fd5b610bc486838701610873565b93506020850135915080821115610bda57600080fd5b50610be785828601610873565b9150509250929050565b60008060006101608486031215610c0757600080fd5b833567ffffffffffffffff811115610c1e57600080fd5b610c2a86828701610975565b9094509250610c3e905085602086016109be565b90509250925092565b60008351610c59818460208801610af4565b602d60f81b9083019081528351610c77816001840160208801610af4565b01600101949350505050565b60008251610c95818460208701610af4565b9190910192915050565b82815260008251610cb7816020850160208701610af4565b919091016020019392505050565b60006101a0820190508782528660208301528560408301528460608301528360808301526101008360a0840137979650505050505050565b8183823760009101908152919050565b81835281816020850137506000828201602090810191909152601f909101601f19169091010190565b604081526000610d4a604083018688610d0d565b8281036020840152610d5d818587610d0d565b979650505050505050565b606081526000610d7c60608301888a610d0d565b8281036020840152610d8f818789610d0d565b90508281036040840152610da4818587610d0d565b9998505050505050505050565b602081526000610935602083018486610d0d565b604081526000610dd9604083018587610d0d565b905060018060a01b038316602083015294935050505056fe6170705f73746167696e675f3665633365613832396130643136666136366134346539383732623730313533a2646970667358221220bffa2e1182a12b3e9f3e8d30bc257cf34134888f33d862a49a2845e4c987125964736f6c63430008110033",
  "linkReferences": {},
  "deployedLinkReferences": {}
}