{
  "_format": "hh-sol-artifact-1",
  "contractName": "C3",
  "sourceName": "contracts/C3.sol",
  "abi": [
    {
      "inputs": [],
      "stateMutability": "nonpayable",
      "type": "constructor"
    },
    {
      "inputs": [],
      "name": "InvalidVerifier",
      "type": "error"
    },
    {
      "inputs": [
        {
          "internalType": "address",
          "name": "owner",
          "type": "address"
        }
      ],
      "name": "OwnableInvalidOwner",
      "type": "error"
    },
    {
      "inputs": [
        {
          "internalType": "address",
          "name": "account",
          "type": "address"
        }
      ],
      "name": "OwnableUnauthorizedAccount",
      "type": "error"
    },
    {
      "inputs": [],
      "name": "PetitionDoesNotExist",
      "type": "error"
    },
    {
      "inputs": [],
      "name": "PetitionExists",
      "type": "error"
    },
    {
      "inputs": [],
      "name": "Unauthorized",
      "type": "error"
    },
    {
      "inputs": [],
      "name": "UpdateExists",
      "type": "error"
    },
    {
      "inputs": [],
      "name": "VictoryDeclared",
      "type": "error"
    },
    {
      "anonymous": false,
      "inputs": [
        {
          "indexed": true,
          "internalType": "address",
          "name": "previousOwner",
          "type": "address"
        },
        {
          "indexed": true,
          "internalType": "address",
          "name": "newOwner",
          "type": "address"
        }
      ],
      "name": "OwnershipTransferred",
      "type": "event"
    },
    {
      "anonymous": false,
      "inputs": [
        {
          "indexed": false,
          "internalType": "string",
          "name": "petitionUuid",
          "type": "string"
        },
        {
          "indexed": false,
          "internalType": "string",
          "name": "petitionCid",
          "type": "string"
        },
        {
          "indexed": false,
          "internalType": "string",
          "name": "verifier",
          "type": "string"
        }
      ],
      "name": "PetitionCreated",
      "type": "event"
    },
    {
      "anonymous": false,
      "inputs": [
        {
          "indexed": false,
          "internalType": "string",
          "name": "petitionUuid",
          "type": "string"
        },
        {
          "indexed": false,
          "internalType": "address",
          "name": "conduit",
          "type": "address"
        },
        {
          "indexed": false,
          "internalType": "string",
          "name": "verifier",
          "type": "string"
        },
        {
          "indexed": false,
          "internalType": "bool",
          "name": "petitionDoesNotExistOnChain",
          "type": "bool"
        }
      ],
      "name": "PetitionSigned",
      "type": "event"
    },
    {
      "anonymous": false,
      "inputs": [
        {
          "indexed": false,
          "internalType": "string",
          "name": "petitionUuid",
          "type": "string"
        },
        {
          "indexed": false,
          "internalType": "string",
          "name": "updateUuid",
          "type": "string"
        },
        {
          "indexed": false,
          "internalType": "string",
          "name": "updateCid",
          "type": "string"
        }
      ],
      "name": "PetitionUpdated",
      "type": "event"
    },
    {
      "anonymous": false,
      "inputs": [
        {
          "indexed": false,
          "internalType": "string",
          "name": "petitionUuid",
          "type": "string"
        }
      ],
      "name": "PetitionVictory",
      "type": "event"
    },
    {
      "anonymous": false,
      "inputs": [
        {
          "indexed": false,
          "internalType": "string",
          "name": "name",
          "type": "string"
        },
        {
          "indexed": false,
          "internalType": "address",
          "name": "verifier",
          "type": "address"
        }
      ],
      "name": "VerifierRegistered",
      "type": "event"
    },
    {
      "inputs": [
        {
          "internalType": "string",
          "name": "petitionUuid",
          "type": "string"
        },
        {
          "internalType": "string",
          "name": "petitionCid",
          "type": "string"
        },
        {
          "internalType": "string",
          "name": "verifier",
          "type": "string"
        },
        {
          "internalType": "bytes",
          "name": "verifyingData",
          "type": "bytes"
        },
        {
          "internalType": "bool",
          "name": "restrictSignerVerifier",
          "type": "bool"
        }
      ],
      "name": "createPetition",
      "outputs": [],
      "stateMutability": "nonpayable",
      "type": "function"
    },
    {
      "inputs": [
        {
          "internalType": "string",
          "name": "petitionUuid",
          "type": "string"
        },
        {
          "internalType": "string",
          "name": "updateUuid",
          "type": "string"
        },
        {
          "internalType": "string",
          "name": "updateCid",
          "type": "string"
        }
      ],
      "name": "createUpdate",
      "outputs": [],
      "stateMutability": "nonpayable",
      "type": "function"
    },
    {
      "inputs": [
        {
          "internalType": "string",
          "name": "petitionUuid",
          "type": "string"
        }
      ],
      "name": "declareVictory",
      "outputs": [],
      "stateMutability": "nonpayable",
      "type": "function"
    },
    {
      "inputs": [],
      "name": "owner",
      "outputs": [
        {
          "internalType": "address",
          "name": "",
          "type": "address"
        }
      ],
      "stateMutability": "view",
      "type": "function"
    },
    {
      "inputs": [
        {
          "internalType": "string",
          "name": "",
          "type": "string"
        }
      ],
      "name": "petitions",
      "outputs": [
        {
          "internalType": "bool",
          "name": "victory",
          "type": "bool"
        },
        {
          "internalType": "address",
          "name": "petitioner",
          "type": "address"
        },
        {
          "internalType": "string",
          "name": "verifier",
          "type": "string"
        }
      ],
      "stateMutability": "view",
      "type": "function"
    },
    {
      "inputs": [],
      "name": "renounceOwnership",
      "outputs": [],
      "stateMutability": "nonpayable",
      "type": "function"
    },
    {
      "inputs": [
        {
          "internalType": "string",
          "name": "name",
          "type": "string"
        },
        {
          "internalType": "contract IC3ExternalIdentityVerifier",
          "name": "verifier",
          "type": "address"
        }
      ],
      "name": "setExternalIdentityVerifier",
      "outputs": [],
      "stateMutability": "nonpayable",
      "type": "function"
    },
    {
      "inputs": [
        {
          "internalType": "string",
          "name": "petitionUuid",
          "type": "string"
        },
        {
          "internalType": "string",
          "name": "verifier",
          "type": "string"
        },
        {
          "internalType": "bytes",
          "name": "verifyingData",
          "type": "bytes"
        }
      ],
      "name": "signPetition",
      "outputs": [],
      "stateMutability": "nonpayable",
      "type": "function"
    },
    {
      "inputs": [
        {
          "internalType": "address",
          "name": "newOwner",
          "type": "address"
        }
      ],
      "name": "transferOwnership",
      "outputs": [],
      "stateMutability": "nonpayable",
      "type": "function"
    },
    {
      "inputs": [
        {
          "internalType": "string",
          "name": "",
          "type": "string"
        }
      ],
      "name": "updates",
      "outputs": [
        {
          "internalType": "bool",
          "name": "exists",
          "type": "bool"
        }
      ],
      "stateMutability": "view",
      "type": "function"
    },
    {
      "inputs": [
        {
          "internalType": "string",
          "name": "",
          "type": "string"
        }
      ],
      "name": "verifiers",
      "outputs": [
        {
          "internalType": "contract IC3ExternalIdentityVerifier",
          "name": "",
          "type": "address"
        }
      ],
      "stateMutability": "view",
      "type": "function"
    }
  ],
  "bytecode": "0x608060405234801561001057600080fd5b50338061003757604051631e4fbdf760e01b81526000600482015260240160405180910390fd5b61004081610046565b50610096565b600080546001600160a01b038381166001600160a01b0319831681178455604051919092169283917f8be0079c531659141344cd1fd0a4f28419497f9722a3daafe3b4186f6b6457e09190a35050565b61111d806100a56000396000f3fe608060405234801561001057600080fd5b50600436106100a95760003560e01c80638166786b116100715780638166786b1461011c5780638da5cb5b1461012f5780639d3f42c614610154578063a4b0e2a614610167578063ac205deb146101a5578063f2fde38b146101d957600080fd5b8063028434cc146100ae57806322b1c09b146100d9578063715018a6146100ee5780637306cc94146100f65780637ff26c2814610109575b600080fd5b6100c16100bc366004610a60565b6101ec565b6040516100d093929190610b57565b60405180910390f35b6100ec6100e7366004610bea565b6102b4565b005b6100ec61033d565b6100ec610104366004610c41565b610351565b6100ec610117366004610cdb565b610367565b6100ec61012a366004610c41565b610463565b6000546001600160a01b03165b6040516001600160a01b0390911681526020016100d0565b6100ec610162366004610db7565b6106f6565b610195610175366004610a60565b805160208183018101805160028252928201919093012091525460ff1681565b60405190151581526020016100d0565b61013c6101b3366004610a60565b80516020818301810180516003825292820191909301209152546001600160a01b031681565b6100ec6101e7366004610df9565b610704565b8051602081830181018051600180835293830192909401919091209290528154908201805460ff8316936101009093046001600160a01b031692919061023190610e16565b80601f016020809104026020016040519081016040528092919081815260200182805461025d90610e16565b80156102aa5780601f1061027f576101008083540402835291602001916102aa565b820191906000526020600020905b81548152906001019060200180831161028d57829003601f168201915b5050505050905083565b6102bc610747565b80600384846040516102cf929190610e50565b90815260405190819003602001812080546001600160a01b03939093166001600160a01b0319909316929092179091557f0179e5b2127c63c645a2c664d43c8f48348996c5d0352057d32109c611bcd21d9061033090859085908590610e89565b60405180910390a1505050565b610345610747565b61034f6000610774565b565b61035f8686868686866107c4565b505050505050565b60038585604051610379929190610e50565b9081526040805191829003602001822054606083019091526001600160a01b03169063d34ec01690806103a93390565b6001600160a01b03168152602001637ff26c2860e01b6001600160e01b03191681526020018c8c8c8c8a8a6040516020016103e996959493929190610eb5565b6040516020818303038152906040528152506040518263ffffffff1660e01b81526004016104179190610efe565b600060405180830381600087803b15801561043157600080fd5b505af1158015610445573d6000803e3d6000fd5b50505050610458898989898989876108e4565b505050505050505050565b600060018787604051610477929190610e50565b9081526040805160209281900383018120606082018352805460ff81161515835261010090046001600160a01b0316938201939093526001830180549193928401916104c290610e16565b80601f01602080910402602001604051908101604052809291908181526020018280546104ee90610e16565b801561053b5780601f106105105761010080835404028352916020019161053b565b820191906000526020600020905b81548152906001019060200180831161051e57829003601f168201915b5050505050815250509050600081604001515111801561059c575061059a816040015186868080601f01602080910402602001604051908101604052809392919081815260200183838082843760009201919091525061099d92505050565b155b156105ba5760405163baa3de5f60e01b815260040160405180910390fd5b600385856040516105cc929190610e50565b9081526040805191829003602001822054606083019091526001600160a01b03169063d34ec01690806105fc3390565b6001600160a01b03168152602001638166786b60e01b6001600160e01b03191681526020018a8a88886040516020016106389493929190610f49565b6040516020818303038152906040528152506040518263ffffffff1660e01b81526004016106669190610efe565b600060405180830381600087803b15801561068057600080fd5b505af1158015610694573d6000803e3d6000fd5b505050507ff6377cfb946345910dcea048425e430b85fabdfa0078fbfa7b84391d6b01266187876106c23390565b60208501516040516106e5949392918b918b916001600160a01b03161590610f7b565b60405180910390a150505050505050565b61070082826109c4565b5050565b61070c610747565b6001600160a01b03811661073b57604051631e4fbdf760e01b8152600060048201526024015b60405180910390fd5b61074481610774565b50565b6000546001600160a01b0316331461034f5760405163118cdaa760e01b8152336004820152602401610732565b600080546001600160a01b038381166001600160a01b0319831681178455604051919092169283917f8be0079c531659141344cd1fd0a4f28419497f9722a3daafe3b4186f6b6457e09190a35050565b6000600285856040516107d8929190610e50565b908152602001604051809103902090506000600188886040516107fc929190610e50565b908152604051908190036020019020825490915060ff16156108315760405163194215a160e21b815260040160405180910390fd5b805461010090046001600160a01b031661085e5760405163b36e9f2f60e01b815260040160405180910390fd5b80546001600160a01b0361010090910416331461088d576040516282b42960e81b815260040160405180910390fd5b815460ff191660011782556040517fae863d9b1e73497b7ef54b01ef1c2a5e86ef4933006efb19ee0821182c8a17bf906108d290889088908c908c908a908a90610eb5565b60405180910390a15050505050505050565b6000600188886040516108f8929190610e50565b908152604051908190036020019020805490915061010090046001600160a01b03161561093857604051632276942760e11b815260040160405180910390fd5b8054610100600160a81b031916610100330217815581156109645760018101610962848683611012565b505b7f5e209353e01e38d6173d361f629a0b98f100806d3af3c997fe5334112aa189dc8888888888886040516108d296959493929190610eb5565b6000815183511480156109bd575081805190602001208380519060200120145b9392505050565b6000600183836040516109d8929190610e50565b908152604051908190036020019020805490915060ff1615610a0d5760405163b4c1e9ab60e01b815260040160405180910390fd5b805460ff191660011781556040517f6b9aba9c09dc833d815ac241a14cf420021d48d9d3517e5ae915840a09b4d3c29061033090859085906110d3565b634e487b7160e01b600052604160045260246000fd5b600060208284031215610a7257600080fd5b813567ffffffffffffffff80821115610a8a57600080fd5b818401915084601f830112610a9e57600080fd5b813581811115610ab057610ab0610a4a565b604051601f8201601f19908116603f01168101908382118183101715610ad857610ad8610a4a565b81604052828152876020848701011115610af157600080fd5b826020860160208301376000928101602001929092525095945050505050565b6000815180845260005b81811015610b3757602081850181015186830182015201610b1b565b506000602082860101526020601f19601f83011685010191505092915050565b83151581526001600160a01b0383166020820152606060408201819052600090610b8390830184610b11565b95945050505050565b60008083601f840112610b9e57600080fd5b50813567ffffffffffffffff811115610bb657600080fd5b602083019150836020828501011115610bce57600080fd5b9250929050565b6001600160a01b038116811461074457600080fd5b600080600060408486031215610bff57600080fd5b833567ffffffffffffffff811115610c1657600080fd5b610c2286828701610b8c565b9094509250506020840135610c3681610bd5565b809150509250925092565b60008060008060008060608789031215610c5a57600080fd5b863567ffffffffffffffff80821115610c7257600080fd5b610c7e8a838b01610b8c565b90985096506020890135915080821115610c9757600080fd5b610ca38a838b01610b8c565b90965094506040890135915080821115610cbc57600080fd5b50610cc989828a01610b8c565b979a9699509497509295939492505050565b600080600080600080600080600060a08a8c031215610cf957600080fd5b893567ffffffffffffffff80821115610d1157600080fd5b610d1d8d838e01610b8c565b909b50995060208c0135915080821115610d3657600080fd5b610d428d838e01610b8c565b909950975060408c0135915080821115610d5b57600080fd5b610d678d838e01610b8c565b909750955060608c0135915080821115610d8057600080fd5b50610d8d8c828d01610b8c565b90945092505060808a01358015158114610da657600080fd5b809150509295985092959850929598565b60008060208385031215610dca57600080fd5b823567ffffffffffffffff811115610de157600080fd5b610ded85828601610b8c565b90969095509350505050565b600060208284031215610e0b57600080fd5b81356109bd81610bd5565b600181811c90821680610e2a57607f821691505b602082108103610e4a57634e487b7160e01b600052602260045260246000fd5b50919050565b8183823760009101908152919050565b81835281816020850137506000828201602090810191909152601f909101601f19169091010190565b604081526000610e9d604083018587610e60565b905060018060a01b0383166020830152949350505050565b606081526000610ec960608301888a610e60565b8281036020840152610edc818789610e60565b90508281036040840152610ef1818587610e60565b9998505050505050505050565b602080825282516001600160a01b0316828201528201516001600160e01b031916604080830191909152820151606080830152600090610f416080840182610b11565b949350505050565b604081526000610f5d604083018688610e60565b8281036020840152610f70818587610e60565b979650505050505050565b608081526000610f8f60808301888a610e60565b6001600160a01b03871660208401528281036040840152610fb1818688610e60565b9150508215156060830152979650505050505050565b601f82111561100d57600081815260208120601f850160051c81016020861015610fee5750805b601f850160051c820191505b8181101561035f57828155600101610ffa565b505050565b67ffffffffffffffff83111561102a5761102a610a4a565b61103e836110388354610e16565b83610fc7565b6000601f841160018114611072576000851561105a5750838201355b600019600387901b1c1916600186901b1783556110cc565b600083815260209020601f19861690835b828110156110a35786850135825560209485019460019092019101611083565b50868210156110c05760001960f88860031b161c19848701351681555b505060018560011b0183555b5050505050565b602081526000610f41602083018486610e6056fea264697066735822122028b764f170d898fea5c19e0430f8921cfaca059560ba9793c35545f16877abd464736f6c63430008140033",
  "linkReferences": {},
  "deployedLinkReferences": {}
}